{
  "contractName": "EthSwap",
  "abi": [
    {
      "inputs": [
        {
          "internalType": "contract FalkToken",
          "name": "_falktoken",
          "type": "address"
        }
      ],
      "stateMutability": "nonpayable",
      "type": "constructor"
    },
    {
      "anonymous": false,
      "inputs": [
        {
          "indexed": true,
          "internalType": "address",
          "name": "buyer",
          "type": "address"
        },
        {
          "indexed": false,
          "internalType": "address",
          "name": "falktoken",
          "type": "address"
        },
        {
          "indexed": false,
          "internalType": "uint256",
          "name": "amount",
          "type": "uint256"
        },
        {
          "indexed": false,
          "internalType": "uint256",
          "name": "rate",
          "type": "uint256"
        }
      ],
      "name": "Bought",
      "type": "event"
    },
    {
      "anonymous": false,
      "inputs": [
        {
          "indexed": true,
          "internalType": "address",
          "name": "buyer",
          "type": "address"
        },
        {
          "indexed": false,
          "internalType": "address",
          "name": "falktoken",
          "type": "address"
        },
        {
          "indexed": false,
          "internalType": "uint256",
          "name": "amount",
          "type": "uint256"
        },
        {
          "indexed": false,
          "internalType": "uint256",
          "name": "rate",
          "type": "uint256"
        }
      ],
      "name": "Sold",
      "type": "event"
    },
    {
      "inputs": [],
      "name": "falktoken",
      "outputs": [
        {
          "internalType": "contract FalkToken",
          "name": "",
          "type": "address"
        }
      ],
      "stateMutability": "view",
      "type": "function",
      "constant": true
    },
    {
      "inputs": [],
      "name": "name",
      "outputs": [
        {
          "internalType": "string",
          "name": "",
          "type": "string"
        }
      ],
      "stateMutability": "view",
      "type": "function",
      "constant": true
    },
    {
      "inputs": [],
      "name": "rate",
      "outputs": [
        {
          "internalType": "uint256",
          "name": "",
          "type": "uint256"
        }
      ],
      "stateMutability": "view",
      "type": "function",
      "constant": true
    },
    {
      "inputs": [],
      "name": "buyToken",
      "outputs": [],
      "stateMutability": "payable",
      "type": "function",
      "payable": true
    },
    {
      "inputs": [
        {
          "internalType": "uint256",
          "name": "_amount",
          "type": "uint256"
        }
      ],
      "name": "sellTokens",
      "outputs": [],
      "stateMutability": "nonpayable",
      "type": "function"
    }
  ],
  "bytecode": "0x60806040526040518060400160405280601881526020017f4574685377617020696e7374616e742045786368616e676500000000000000008152506000908051906020019062000051929190620000d2565b5060646002553480156200006457600080fd5b5060405162000dc638038062000dc683398181016040528101906200008a919062000200565b80600160006101000a81548173ffffffffffffffffffffffffffffffffffffffff021916908373ffffffffffffffffffffffffffffffffffffffff1602179055505062000297565b828054620000e09062000261565b90600052602060002090601f01602090048101928262000104576000855562000150565b82601f106200011f57805160ff191683800117855562000150565b8280016001018555821562000150579182015b828111156200014f57825182559160200191906001019062000132565b5b5090506200015f919062000163565b5090565b5b808211156200017e57600081600090555060010162000164565b5090565b600080fd5b600073ffffffffffffffffffffffffffffffffffffffff82169050919050565b6000620001b48262000187565b9050919050565b6000620001c882620001a7565b9050919050565b620001da81620001bb565b8114620001e657600080fd5b50565b600081519050620001fa81620001cf565b92915050565b60006020828403121562000219576200021862000182565b5b60006200022984828501620001e9565b91505092915050565b7f4e487b7100000000000000000000000000000000000000000000000000000000600052602260045260246000fd5b600060028204905060018216806200027a57607f821691505b6020821081141562000291576200029062000232565b5b50919050565b610b1f80620002a76000396000f3fe608060405260043610610067576000357c01000000000000000000000000000000000000000000000000000000009004806306fdde031461006c5780632c4e722e1461009757806365e32b35146100c25780636c11bcd3146100ed578063a482171914610116575b600080fd5b34801561007857600080fd5b50610081610120565b60405161008e919061066b565b60405180910390f35b3480156100a357600080fd5b506100ac6101ae565b6040516100b991906106a6565b60405180910390f35b3480156100ce57600080fd5b506100d76101b4565b6040516100e49190610740565b60405180910390f35b3480156100f957600080fd5b50610114600480360381019061010f919061078c565b6101da565b005b61011e6103c6565b005b6000805461012d906107e8565b80601f0160208091040260200160405190810160405280929190818152602001828054610159906107e8565b80156101a65780601f1061017b576101008083540402835291602001916101a6565b820191906000526020600020905b81548152906001019060200180831161018957829003601f168201915b505050505081565b60025481565b600160009054906101000a900473ffffffffffffffffffffffffffffffffffffffff1681565b6000600254826101ea9190610878565b9050803073ffffffffffffffffffffffffffffffffffffffff16311015610246576040517f08c379a000000000000000000000000000000000000000000000000000000000815260040161023d906108f5565b60405180910390fd5b600160009054906101000a900473ffffffffffffffffffffffffffffffffffffffff1673ffffffffffffffffffffffffffffffffffffffff166323b872dd3330856040518463ffffffff167c01000000000000000000000000000000000000000000000000000000000281526004016102c193929190610936565b6020604051808303816000875af11580156102e0573d6000803e3d6000fd5b505050506040513d601f19601f8201168201806040525081019061030491906109a5565b503373ffffffffffffffffffffffffffffffffffffffff166108fc829081150290604051600060405180830381858888f1935050505015801561034b573d6000803e3d6000fd5b503373ffffffffffffffffffffffffffffffffffffffff167f16dd16959a056953a63cf14bf427881e762e54f03d86b864efea8238dd3b822f600160009054906101000a900473ffffffffffffffffffffffffffffffffffffffff16846002546040516103ba939291906109d2565b60405180910390a25050565b6000600254346103d69190610a09565b905080600160009054906101000a900473ffffffffffffffffffffffffffffffffffffffff1673ffffffffffffffffffffffffffffffffffffffff166370a08231306040518263ffffffff167c01000000000000000000000000000000000000000000000000000000000281526004016104509190610a63565b602060405180830381865afa15801561046d573d6000803e3d6000fd5b505050506040513d601f19601f820116820180604052508101906104919190610a93565b101561049c57600080fd5b600160009054906101000a900473ffffffffffffffffffffffffffffffffffffffff1673ffffffffffffffffffffffffffffffffffffffff1663a9059cbb33836040518363ffffffff167c0100000000000000000000000000000000000000000000000000000000028152600401610515929190610ac0565b6020604051808303816000875af1158015610534573d6000803e3d6000fd5b505050506040513d601f19601f8201168201806040525081019061055891906109a5565b503373ffffffffffffffffffffffffffffffffffffffff167fbf77fd13a39d14dc0da779342c14105c38d9a5d0c60f2caa22f5fd1d5525416d600160009054906101000a900473ffffffffffffffffffffffffffffffffffffffff16836002546040516105c7939291906109d2565b60405180910390a250565b600081519050919050565b600082825260208201905092915050565b60005b8381101561060c5780820151818401526020810190506105f1565b8381111561061b576000848401525b50505050565b6000601f19601f8301169050919050565b600061063d826105d2565b61064781856105dd565b93506106578185602086016105ee565b61066081610621565b840191505092915050565b600060208201905081810360008301526106858184610632565b905092915050565b6000819050919050565b6106a08161068d565b82525050565b60006020820190506106bb6000830184610697565b92915050565b600073ffffffffffffffffffffffffffffffffffffffff82169050919050565b6000819050919050565b60006107066107016106fc846106c1565b6106e1565b6106c1565b9050919050565b6000610718826106eb565b9050919050565b600061072a8261070d565b9050919050565b61073a8161071f565b82525050565b60006020820190506107556000830184610731565b92915050565b600080fd5b6107698161068d565b811461077457600080fd5b50565b60008135905061078681610760565b92915050565b6000602082840312156107a2576107a161075b565b5b60006107b084828501610777565b91505092915050565b7f4e487b7100000000000000000000000000000000000000000000000000000000600052602260045260246000fd5b6000600282049050600182168061080057607f821691505b60208210811415610814576108136107b9565b5b50919050565b7f4e487b7100000000000000000000000000000000000000000000000000000000600052601260045260246000fd5b7f4e487b7100000000000000000000000000000000000000000000000000000000600052601160045260246000fd5b60006108838261068d565b915061088e8361068d565b92508261089e5761089d61081a565b5b828204905092915050565b7f4e6f7420656e6f7567682062616c616e63650000000000000000000000000000600082015250565b60006108df6012836105dd565b91506108ea826108a9565b602082019050919050565b6000602082019050818103600083015261090e816108d2565b9050919050565b6000610920826106c1565b9050919050565b61093081610915565b82525050565b600060608201905061094b6000830186610927565b6109586020830185610927565b6109656040830184610697565b949350505050565b60008115159050919050565b6109828161096d565b811461098d57600080fd5b50565b60008151905061099f81610979565b92915050565b6000602082840312156109bb576109ba61075b565b5b60006109c984828501610990565b91505092915050565b60006060820190506109e76000830186610927565b6109f46020830185610697565b610a016040830184610697565b949350505050565b6000610a148261068d565b9150610a1f8361068d565b9250817fffffffffffffffffffffffffffffffffffffffffffffffffffffffffffffffff0483118215151615610a5857610a57610849565b5b828202905092915050565b6000602082019050610a786000830184610927565b92915050565b600081519050610a8d81610760565b92915050565b600060208284031215610aa957610aa861075b565b5b6000610ab784828501610a7e565b91505092915050565b6000604082019050610ad56000830185610927565b610ae26020830184610697565b939250505056fea26469706673582212208271ab430efdfd8a62cd9706862198f44b88863de4053b933f2a237fd16c7e4a64736f6c634300080b0033",
  "immutableReferences": {},
  "source": "// SPDX-License-Identifier: MIT\npragma solidity >=0.4.22 <0.9.0;\n\nimport './FalkToken.sol';\n\ncontract EthSwap {\n    string public name = \"EthSwap instant Exchange\";\n    FalkToken public falktoken;\n    uint public rate = 100;\n\n    event Bought(\n        address indexed buyer,\n        address falktoken,\n        uint amount,\n        uint rate\n    );\n\n    event Sold(\n        address indexed buyer,\n        address falktoken,\n        uint amount,\n        uint rate\n    );\n\n    constructor(FalkToken _falktoken) {\n        falktoken = _falktoken;\n    }\n\n    function buyToken() external payable {\n        uint tokenAmount = msg.value * rate;\n\n        require(falktoken.balanceOf(address(this)) >= tokenAmount);\n\n        falktoken.transfer(msg.sender, tokenAmount);\n\n        emit Bought(msg.sender, address(falktoken), tokenAmount, rate);\n    }\n\n    function sellTokens(uint _amount) public {\n        uint etherAmount = _amount / rate;\n\n        require(address(this).balance >= etherAmount, \"Not enough balance\");\n\n        falktoken.transferFrom(msg.sender, address(this), _amount);\n\n        payable(msg.sender).transfer(etherAmount);\n\n        emit Sold(msg.sender, address(falktoken), _amount, rate);\n    }\n}",
  "sourcePath": "/home/falkor/Documents/devPerso/eth-swap/eth-truffle/contracts/EthSwap.sol",
  "compiler": {
    "name": "solc",
    "version": "0.8.11+commit.d7f03943.Emscripten.clang"
  },
  "schemaVersion": "3.4.5",
  "updatedAt": "2022-03-20T10:59:17.238Z",
  "networkType": "ethereum",
  "devdoc": {
    "kind": "dev",
    "methods": {},
    "version": 1
  },
  "userdoc": {
    "kind": "user",
    "methods": {},
    "version": 1
  }
}